:1070000055C000006EC000006CC000006AC00000E7
:1070100068C0000066C0000064C0000062C00000DC
:1070200060C000005EC00000CFC400005AC0000075
:1070300058C0000056C0000054C0000052C00000FC
:1070400050C0000060C000004CC000004AC00000FA
:1070500048C0000046C0000044C0000042C000001C
:1070600040C000003EC000003CC000003AC000002C
:1070700038C0000036C0000034C0000032C000003C
:1070800030C000002EC000002CC000002AC000004C
:1070900028C0000026C0000024C0000022C000005C
:1070A00020C000001EC000001CC0000011241FBE34
:1070B000CFEFDAE0DEBFCDBF11E0A0E0B1E0EAEE55
:1070C000FEE702C005900D92A83AB107D9F711E08A
:1070D000A8EAB1E001C01D92AC3BB107E1F771D362
:1070E00002C78ECFF89410926F0010928100109218
:1070F00085001092840081E085BF15BE5A985B9888
:107100000C94000008951F920F920FB60F92112455
:107110002F938F939F93EF93FF931092850010927C
:1071200084008091A8019091A901009729F001970E
:107130009093A9018093A8018091AA019091AB013D
:10714000009741F001979093AB018093AA01892B9E
:1071500009F45B98E0E0F0E0859194918F5F9F4F98
:1071600049F08091AC019091AD0101969093AD01F1
:107170008093AC01FF91EF919F918F912F910F9090
:107180000FBE0F901F90189584E08093E9000DC00A
:107190008091E8008B778093E80003C08EB388234A
:1071A00051F08091E80082FFF9CF8091E80085FFDF
:1071B000EFCF8091F1000895982F83E08093E9004C
:1071C0008091E80085FD0DC08091E8008E77809366
:1071D000E80003C08EB3882361F08091E80080FF4F
:1071E000F9CF9093F10084E690E09093A901809309
:1071F000A80108954F925F926F927F928F929F9213
:10720000AF92BF92CF92DF92EF92FF920F931F93B4
:10721000CF93DF9384E08093E9008091E80082FFC0
:1072200057C25B9A84E690E09093AB018093AA01E9
:10723000ABDF182F853481F48CEA9DE09093AD018B
:107240008093AC0107B600FCFDCFF999FECF81E138
:1072500080935700E89503C0843519F495DF8DE0DD
:107260000DC28C34E1F38035D1F3843721F484E40A
:10727000A3DF80E003C2813611F489E5FFC18134C8
:10728000B1F482DF182F80DF90E0880F991FAA27C2
:1072900097FDA095BA2F312F330F20E0442737FDFB
:1072A0004095542F822B932BA42BB52BB8C180373C
:1072B00011F483E5E3C1833549F4C0E0D1E089915D
:1072C0007BDF21E0C730D207D1F7D9C1863521F461
:1072D00081E372DF80E3D2C1833731F487E86CDF6A
:1072E00085E96ADF8EE1CAC18536B9F4E0E0F0E0F5
:1072F00093E085E090935700E89507B600FCFDCF3A
:1073000080935700E89507B600FCFDCFE058FF4F8B
:10731000A0E7E030FA0771F7A2CF823739F4E1E055
:10732000F0E089E0809357008491A8C1863439F455
:10733000E0E0F0E089E08093570084919FC18E34B3
:1073400039F4E3E0F0E089E080935700849196C13E
:10735000813539F4E2E0F0E089E0809357008491D0
:107360008DC1823631F489E527DF80E025DF80E8B2
:1073700085C1823419F0873609F0E5C01092AD015D
:107380001092AC0101DF082FFFDEF82EFDDE682E23
:107390008554823008F071C1902F80E0CF2DD0E06D
:1073A000C82BD92B10926F00173609F04BC081E122
:1073B00080935700E895DD24CC24C3943FC0E0902F
:1073C000AE01F090AF010091B0011091B101B6E4AF
:1073D0006B16D9F4ED2DF0E0EE29FF29E4918E2F04
:1073E000EBDEDD2081F082E090E0A0E0B0E0E80E8E
:1073F000F91E0A1F1B1FE092AE01F092AF0100932D
:10740000B0011093B101DC2418C0D801C701B695B2
:10741000A7959795879551D5CFDE82E090E0A0E0C3
:10742000B0E0E80EF91E0A1F1B1FE092AE01F092B9
:10743000AF010093B0011093B1012197209709F09B
:10744000BECF7DC08090AE019090AF01A090B00102
:10745000B090B10196E4691609F05DC083E0F401D3
:1074600080935700E89507B600FCFDCF54C0F6E4C2
:107470006F1661F5772031F1E090AE01F090AF0129
:107480000091B0011091B1017FDED82ECC24852D62
:1074900090E08C299D29F7010C0140925700E89556
:1074A000112482E090E0A0E0B0E0E80EF91E0A1F8F
:1074B0001B1FE092AE01F092AF010093B001109358
:1074C000B10102C061DE582E742423C0E090AE01E9
:1074D000F090AF010091B0011091B10116950795A0
:1074E000F794E79451DE682FC701EFD48091AE0185
:1074F0009091AF01A091B001B091B1010296A11D90
:10750000B11D8093AE019093AF01A093B001B093F1
:10751000B101219704C05524772444244394209733
:1075200009F0A5CF96E4691641F485E0F401809353
:107530005700E89507B600FCFDCF8DE03DDE82E008
:1075400080936F009CC0833471F40091AE01109160
:10755000AF011ADE90E021E0F8010C012093570002
:10756000E89511247CCE833619F5E090AE01F090B9
:10757000AF010091B0011091B10106DEF701E160A9
:1075800090E021E00C0120935700E895112482E05F
:1075900090E0A0E0B0E0E80EF91E0A1F1B1FE09289
:1075A000AE01F092AF010093B0011093B10157CE3C
:1075B0008D3661F4E091AE01F091AF0185E08093EA
:1075C0005700E89507B600FCFDCF49CE823551F44F
:1075D000E091AE01F091AF0105911491812FECDDA6
:1075E000802F4CC0843421F5E090AE01F090AF01C3
:1075F0000091B0011091B10116950795F794E794A9
:10760000C3DD682FC70161D48091AE019091AF01B5
:10761000A091B001B091B1010296A11DB11D80935E
:10762000AE019093AF01A093B001B093B10117CE1A
:10763000843609F5E090AE01F090AF010091B00101
:107640001091B101D801C701B695A7959795879577
:1076500034D4B2DD82E090E0A0E0B0E0E80EF91EA4
:107660000A1F1B1FE092AE01F092AF010093B00120
:107670001093B10104C08B3111F08FE39DDD83E0E5
:107680008093E9009091E8008091E8008E778093E4
:10769000E80095FF04C010C08EB38823C9F0809124
:1076A000E80080FFF9CF8091E8008E778093E800B2
:1076B00003C08EB3882361F08091E80080FFF9CF8A
:1076C00084E08093E9008091E8008B778093E80064
:1076D000DF91CF911F910F91FF90EF90DF90CF90AE
:1076E000BF90AF909F908F907F906F905F904F90E2
:1076F00008959091B401892F8F77813249F5809157
:10770000B5018032A1F0813219F5913A09F58091E5
:10771000E800877F8093E8008DE091E067E070E00B
:1077200001D28091E8008B778093E8000895913230
:1077300079F48091E800877F8093E8008DE091E004
:1077400067E070E04CD28091E8008E778093E8008B
:10775000089582E061EC42E0B2D083E061E842E16A
:10776000AED084E060E842E1AAC084B7877F84BFDE
:1077700088E10FB6F89480936000109260000FBE0D
:1077800020E880E090E00FB6F894209361008093A9
:1077900061000FBE81E085BF92E095BF529A539A77
:1077A000E1E6F0E0208310825A985B9810928900FD
:1077B0008AEF8093880090936F0083E0809381002C
:1077C000EBC04091000850910108109201081092FE
:1077D000000894B714BE88E10FB6F8948093600057
:1077E000109260000FBE292F30E0F901E270F070B6
:1077F00091FD18C090FF05C0859194918F5F9F4FB8
:1078000081F423FF0FC08091090190910A0148176C
:10781000590741F0E0E0F0E0859194918F5F9F4F30
:1078200009F060DCA2DF78941092AD011092AC01F7
:107830000BC0E0DC31D38091AC019091AD01815A55
:107840009F4010F01092140180911401882389F751
:107850008091E00081608093E00044DC80E090E073
:107860000895FA01923049F0933061F09130F9F4C3
:1078700085E191E022E130E01EC087E291E02EE355
:1078800030E019C0882329F485E691E024E030E057
:1078900012C0813029F489E691E022E230E00BC089
:1078A000823029F48DE891E028E130E004C080E0E6
:1078B00090E020E030E091838083C90108958093B7
:1078C000E900EBEEF0E0808181608083EDEEF0E096
:1078D00010826093EC0040838091EE00881F88271F
:1078E000881F08958091B40187FD05C08091E8004C
:1078F00080FF0DC010C08091E80082FD04C08EB3EF
:107900008111F9CF08958091E8008B7707C08EB37D
:107910008111ECCF08958091E8008E778093E80084
:1079200008950F931F93CF93DF9341D048D0C8EDB4
:10793000D0E088818F778883888180688883888178
:107940008F7D888319BC1EBA1092B20100EE10E040
:10795000F80180818B7F808388818160888342E009
:1079600060E080E0ACDFE1EEF0E080818E7F80833C
:10797000E2EEF0E080818160808380818860808396
:10798000F80180818E7F8083888180618883DF9188
:10799000CF911F910F910895E7EDF0E08081816014
:1079A00080838AE482BF81E08093B301BACFE8ED9F
:1079B000F0E080818E7F80831092E2000895109223
:1079C000DA001092E10008951F920F920FB60F9205
:1079D00011242F933F934F935F936F937F938F93D4
:1079E0009F93AF93BF93EF93FF938091DA0080FF53
:1079F00019C08091D80080FF15C08091DA008E7F79
:107A00008093DA008091D90019BC80FF09C082E020
:107A100089BD09B400FEFDCF81E08EBB3CD202C01F
:107A20001EBA39D28091E10080FF17C08091E20038
:107A300080FF13C08091E2008E7F8093E2008091EE
:107A4000E20080618093E2008091D80080628093A0
:107A5000D80019BC85E08EBB1ED28091E10084FF66
:107A60002BC08091E20084FF27C019BC82E089BD51
:107A700009B400FEFDCF8091D8008F7D8093D8009F
:107A80008091E1008F7E8093E1008091E2008F7E03
:107A90008093E2008091E20081608093E200809117
:107AA000B201811104C08091E30087FF02C084E02D
:107AB00001C081E08EBBEFD18091E10083FF21C046
:107AC0008091E20083FF1DC08091E100877F809359
:107AD000E10082E08EBB1092B2018091E1008E7FC6
:107AE0008093E1008091E2008E7F8093E20080919C
:107AF000E20080618093E20042E060E080E0DFDE4F
:107B0000CAD1FF91EF91BF91AF919F918F917F91DA
:107B10006F915F914F913F912F910F900FBE0F90FA
:107B20001F9018954091BA015091BB014617570715
:107B300048F06115710539F44091E8004E774093A3
:107B4000E80001C0BA01FC0140E032C08EB38823D6
:107B500009F441C0853009F440C08091E80083FDFC
:107B600038C08091E80082FD2EC08091E80080FF3F
:107B70001FC09091F3008091F200392F20E0A901FD
:107B8000482BCA0106C041914093F1006150710930
:107B900001966115710519F088309105A0F341E057
:107BA000089709F040E08091E8008E778093E80024
:107BB0006115710559F64111C9CF05C08EB38823EF
:107BC00051F0853051F08091E80082FFF7CF80E0DE
:107BD000089581E0089582E0089583E00895611595
:107BE000710529F44091E8004B774093E800AC011F
:107BF00027C08EB38823B1F1853071F18091E80000
:107C000083FD2CC08091E80082FFF3CFFA0107C00A
:107C10008091F1008193AF016150710961F0AF0172
:107C20009091F3008091F200392F20E0D901A82B28
:107C3000CD01892B69F78091E8008B778093E8006C
:107C400061157105B1F68091E80080FD09C08EB321
:107C5000882341F08530B9F783E0089581E00895E5
:107C600080E0089582E00895EF92FF920F931F93B2
:107C7000CF93DF9300D0CDB7DEB7E4EBF1E0809196
:107C8000F100819381E0EC3BF807C9F732DD809188
:107C9000E80083FFE9C08091B4019091B50195306F
:107CA00009F46FC038F4913071F170F0933009F03D
:107CB000DBC029C0983009F4AAC0993009F4B9C0D2
:107CC000963009F0D1C083C0803809F4CDC0823825
:107CD00009F0CAC08091B8019091B90187709927C5
:107CE0008093E9009091EB001092E9008091E80008
:107CF000877F8093E80095FB882780F98093F100C7
:107D00001092F1008FC0882319F0823009F0ACC0C6
:107D10008F71823009F0A8C08091B60181112BC00B
:107D20008091B8019091B90187709927009709F463
:107D30009BC08093E9002091EB0020FF1CC02091A4
:107D4000B501233021F48091EB00806212C0909144
:107D5000EB0090619093EB0021E030E001C0220F36
:107D60008A95EAF72093EA001092EA008091EB00EE
:107D700088608093EB001092E9008091E800877F93
:107D800054C0811171C00091B6011091B7010F77F5
:107D90001127E02EFFB6F8948091E800877F80934A
:107DA000E800A0DD8091E80080FFFCCF8091E30037
:107DB0008078802B8093E30080688093E300EE203E
:107DC00011F083E001C082E08EBBFFBE4DC0805841
:107DD000823008F049C0AE014F5F5F4F6091B8013B
:107DE0008091B6019091B7013CDD009709F43CC049
:107DF0002091E800277F2093E800BC0189819A81C7
:107E000091DE8091E8008B778093E8002DC0803868
:107E100059F58091E800877F8093E8008091B20156
:107E20008093F1008091E8008E778093E8005ADD1E
:107E30001BC0811119C09091B6019230A8F48091B5
:107E4000E800877F8093E8009093B2014BDD80913A
:107E5000B201811104C08091E30087FF02C084E079
:107E600001C081E08EBB75DC8091E80083FF0AC011
:107E70008091EB0080628093EB008091E800877F27
:107E80008093E8000F900F90DF91CF911F910F9199
:107E9000FF90EF9008950895CF938EB3882359F003
:107EA000C091E900C7701092E9008091E80083FD5D
:107EB000DBDEC093E900CF910895F999FECF92BD22
:107EC00081BDF89A992780B50895262FF999FECF9C
:107ED0001FBA92BD81BD20BD0FB6F894FA9AF99AE7
:0A7EE0000FBE01960895F894FFCF3D
:107EEA004341544552494E4100777700080000004B
:107EFA0000000008011201100102000008412336A7
:107F0A000001000201000109023E00020100803264
:107F1A0009040000010202010005240010010424E2
:107F2A0002040524060001070582030800FF09046C
:107F3A000100020A000000070504021000010705FB
:107F4A008302100001040309042203410072006441
:107F5A0000750069006E006F0020004C0065006F1C
:107F6A00006E006100720064006F00000018034197
:107F7A000072006400750069006E006F0020004CFA
:087F8A00004C00430000000060
:040000030000700089
:00000001FF
